:1000000031C04BC04AC049C048C047C046C045C0C7
:1000100044C043C042C041C040C03FC03EC03DC0DC
:100020003CC03BC03AC095C065C059C05CC05FC011
:1000300063C066C069C06CC06FC072C076C07AC051
:100040007EC082C0A8C0ACC0B0C0B5C0B9C0BDC081
:10005000C1C0C5C0C9C0CDC0D1C0D5C0D9C0DDC028
:10006000E2C0E5C011241FBECFE5D2E0DEBFCDBFA8
:1000700010E0A0E6B0E0E6EDF3E002C005900D92DE
:10008000A23AB107D9F720E0A2EAB0E001C01D9280
:10009000A33CB207E1F78DD19CC1B2CFEF92FF92A2
:1000A0000F931F93CF93DF9383EAE82E80E0F82E1F
:1000B0008701A0E6B0E020E830E0E80149918E0138
:1000C00050E0FA013197EF30F10508F049C0ED5EDC
:1000D000FF4FE90188818BBB8C9188BB0994D2E0EA
:1000E000DA95F1F707C0E5E0EA95F1F732C0FAE0FA
:1000F000FA95F1F700C02EC085E18A95F1F729C085
:1001000095E29A95F1F725C0C8E4CA95F1F722C0A7
:10011000D5E8DA95F1F71DC0E5EDEA95F1F719C0DC
:100120008BED90E00197F1F713C0CFE3D1E0219779
:10013000F1F70EC0EFE8F1E03197F1F709C083EF76
:1001400091E00197F1F704C0CFE6D2E02197F1F7F3
:1001500000C000008091A0008BBB8091A20088BBF2
:100160002F5F3F4F1196D0E0203A3D0709F0A5CF11
:100170008091A0008BBB8091A20088BBD701ED913C
:100180007D018E2F90E08031910508F050C0FC0178
:10019000EE5DFF4F0994CFE6D2E02197F1F741C021
:1001A000EFE6F2E03197F1F73CC08FE692E001977D
:1001B000F1F700C03CC0ADE6B2E01197F1F731C0F5
:1001C000CBE6D2E02197F1F72CC0E7E6F2E03197D9
:1001D000F1F727C08FE592E00197F1F722C0A3E580
:1001E000B2E01197F1F71DC0C9E3D2E02197F1F712
:1001F00018C0EBE0F2E03197F1F713C08FEC91E01B
:100200000197F1F70EC0A3E9B1E01197F1F709C02A
:10021000CFE2D1E02197F1F704C0EFEDF0E03197A4
:10022000F1F700C003C0F5EAFA95F1F7000083EC9E
:10023000E81680E0F80609F0A1CFDF91CF911F9179
:100240000F91FF90EF900895BF92CF92DF92EF92BF
:10025000FF920F931F93CF93DF937C01B62E00E0A4
:1002600010E083ECC82E80E0D82E0E151F0509F192
:10027000C0E0E3EAF0E0C193CE16DF06E1F7D0E09C
:100280000DDFDF5FBD16E0F7CF5FC03191F7CEE045
:10029000E3EAF0E0C19380E0E33CF807D9F7D0E06F
:1002A000FDDEDF5FBD16E0F7C15090F70F5F1F4F17
:1002B000DCCFDF91CF911F910F91FF90EF90DF90F6
:1002C000CF90BF900895E3EAF0E080E081938F5FE4
:1002D0008031E1F7E3CEE3EAF0E081E0819390E062
:1002E000E33CF907D9F7DACEDF92EF92FF920F9352
:1002F0001F93CF93DF931F92CDB7DEB7D62E8C011D
:1003000085E0000F111F8A95E1F71982E12C8E2DEF
:1003100090E08017910708F043C0FD2CFF20B9F151
:10032000FA9480E090E02981AC01420F511D9C01BC
:100330002D553F4F4032510534F04981240F311D76
:10034000F901B09704C04981F901E40FF11D8083E0
:1003500001968031910539F74FE02981BC01620F88
:10036000711D9C012D553F4F5981603271052CF054
:10037000250F311DF901B09703C0F901E50FF11DFB
:100380004083435001964111E8CF88DEC7CF898171
:100390008F5F89838981803208F01982E394B7CF17
:1003A0000F90DF91CF911F910F91FF90EF90DF9011
:1003B00008958CE387BB8FEF8ABB8FE08BBB18BAA5
:1003C00066E082E090E040DF67E086E090E08CDF6E
:0603D000F7CFF894FFCF07
:1003D600000000000810200400000000081020049F
:1003E600000000000810200400000000081020048F
:1003F6001E2E4E8E0E0E0E0E1D2D4D8D0D0D0D0D3F
:100406001B2B4B8B0B0B0B0B172747870707070776
:020416000F00D5
:00000001FF
